{
  "_format": "hh-sol-artifact-1",
  "contractName": "TTVToken",
  "sourceName": "contracts/token/TTVToken.sol",
  "abi": [
    {
      "inputs": [],
      "stateMutability": "nonpayable",
      "type": "constructor"
    },
    {
      "anonymous": false,
      "inputs": [
        {
          "indexed": true,
          "internalType": "address",
          "name": "owner",
          "type": "address"
        },
        {
          "indexed": true,
          "internalType": "address",
          "name": "spender",
          "type": "address"
        },
        {
          "indexed": false,
          "internalType": "uint256",
          "name": "value",
          "type": "uint256"
        }
      ],
      "name": "Approval",
      "type": "event"
    },
    {
      "anonymous": false,
      "inputs": [
        {
          "indexed": true,
          "internalType": "address",
          "name": "from",
          "type": "address"
        },
        {
          "indexed": true,
          "internalType": "address",
          "name": "to",
          "type": "address"
        },
        {
          "indexed": false,
          "internalType": "uint256",
          "name": "value",
          "type": "uint256"
        }
      ],
      "name": "Transfer",
      "type": "event"
    },
    {
      "inputs": [
        {
          "internalType": "address",
          "name": "owner",
          "type": "address"
        },
        {
          "internalType": "address",
          "name": "spender",
          "type": "address"
        }
      ],
      "name": "allowance",
      "outputs": [
        {
          "internalType": "uint256",
          "name": "",
          "type": "uint256"
        }
      ],
      "stateMutability": "view",
      "type": "function"
    },
    {
      "inputs": [
        {
          "internalType": "address",
          "name": "spender",
          "type": "address"
        },
        {
          "internalType": "uint256",
          "name": "amount",
          "type": "uint256"
        }
      ],
      "name": "approve",
      "outputs": [
        {
          "internalType": "bool",
          "name": "",
          "type": "bool"
        }
      ],
      "stateMutability": "nonpayable",
      "type": "function"
    },
    {
      "inputs": [
        {
          "internalType": "address",
          "name": "account",
          "type": "address"
        }
      ],
      "name": "balanceOf",
      "outputs": [
        {
          "internalType": "uint256",
          "name": "",
          "type": "uint256"
        }
      ],
      "stateMutability": "view",
      "type": "function"
    },
    {
      "inputs": [
        {
          "internalType": "uint256",
          "name": "amount",
          "type": "uint256"
        }
      ],
      "name": "claim",
      "outputs": [],
      "stateMutability": "nonpayable",
      "type": "function"
    },
    {
      "inputs": [],
      "name": "decimals",
      "outputs": [
        {
          "internalType": "uint8",
          "name": "",
          "type": "uint8"
        }
      ],
      "stateMutability": "view",
      "type": "function"
    },
    {
      "inputs": [
        {
          "internalType": "address",
          "name": "spender",
          "type": "address"
        },
        {
          "internalType": "uint256",
          "name": "subtractedValue",
          "type": "uint256"
        }
      ],
      "name": "decreaseAllowance",
      "outputs": [
        {
          "internalType": "bool",
          "name": "",
          "type": "bool"
        }
      ],
      "stateMutability": "nonpayable",
      "type": "function"
    },
    {
      "inputs": [
        {
          "internalType": "address",
          "name": "spender",
          "type": "address"
        },
        {
          "internalType": "uint256",
          "name": "addedValue",
          "type": "uint256"
        }
      ],
      "name": "increaseAllowance",
      "outputs": [
        {
          "internalType": "bool",
          "name": "",
          "type": "bool"
        }
      ],
      "stateMutability": "nonpayable",
      "type": "function"
    },
    {
      "inputs": [],
      "name": "name",
      "outputs": [
        {
          "internalType": "string",
          "name": "",
          "type": "string"
        }
      ],
      "stateMutability": "view",
      "type": "function"
    },
    {
      "inputs": [],
      "name": "symbol",
      "outputs": [
        {
          "internalType": "string",
          "name": "",
          "type": "string"
        }
      ],
      "stateMutability": "view",
      "type": "function"
    },
    {
      "inputs": [],
      "name": "totalSupply",
      "outputs": [
        {
          "internalType": "uint256",
          "name": "",
          "type": "uint256"
        }
      ],
      "stateMutability": "view",
      "type": "function"
    },
    {
      "inputs": [
        {
          "internalType": "address",
          "name": "to",
          "type": "address"
        },
        {
          "internalType": "uint256",
          "name": "amount",
          "type": "uint256"
        }
      ],
      "name": "transfer",
      "outputs": [
        {
          "internalType": "bool",
          "name": "",
          "type": "bool"
        }
      ],
      "stateMutability": "nonpayable",
      "type": "function"
    },
    {
      "inputs": [
        {
          "internalType": "address",
          "name": "from",
          "type": "address"
        },
        {
          "internalType": "address",
          "name": "to",
          "type": "address"
        },
        {
          "internalType": "uint256",
          "name": "amount",
          "type": "uint256"
        }
      ],
      "name": "transferFrom",
      "outputs": [
        {
          "internalType": "bool",
          "name": "",
          "type": "bool"
        }
      ],
      "stateMutability": "nonpayable",
      "type": "function"
    }
  ],
  "bytecode": "0x60806040523480156200001157600080fd5b50604051806040016040528060098152602001682a2a2b102a37b5b2b760b91b815250604051806040016040528060038152602001622a2a2b60e91b81525081600390805190602001906200006892919062000194565b5080516200007e90600490602084019062000194565b505050620000a6336301312d00670de0b6b3a7640000620000a0919062000255565b620000ac565b620002ca565b6001600160a01b038216620001075760405162461bcd60e51b815260206004820152601f60248201527f45524332303a206d696e7420746f20746865207a65726f206164647265737300604482015260640160405180910390fd5b80600260008282546200011b91906200023a565b90915550506001600160a01b038216600090815260208190526040812080548392906200014a9084906200023a565b90915550506040518181526001600160a01b038316906000907fddf252ad1be2c89b69c2b068fc378daa952ba7f163c4a11628f55a4df523b3ef9060200160405180910390a35050565b828054620001a29062000277565b90600052602060002090601f016020900481019282620001c6576000855562000211565b82601f10620001e157805160ff191683800117855562000211565b8280016001018555821562000211579182015b8281111562000211578251825591602001919060010190620001f4565b506200021f92915062000223565b5090565b5b808211156200021f576000815560010162000224565b60008219821115620002505762000250620002b4565b500190565b6000816000190483118215151615620002725762000272620002b4565b500290565b600181811c908216806200028c57607f821691505b60208210811415620002ae57634e487b7160e01b600052602260045260246000fd5b50919050565b634e487b7160e01b600052601160045260246000fd5b610a4d80620002da6000396000f3fe608060405234801561001057600080fd5b50600436106100a45760003560e01c806306fdde03146100a9578063095ea7b3146100c757806318160ddd146100ea57806323b872dd146100fc578063313ce5671461010f578063379607f51461011e578063395093511461013357806370a082311461014657806395d89b411461016f578063a457c2d714610177578063a9059cbb1461018a578063dd62ed3e1461019d575b600080fd5b6100b16101b0565b6040516100be919061091a565b60405180910390f35b6100da6100d53660046108d7565b610242565b60405190151581526020016100be565b6002545b6040519081526020016100be565b6100da61010a36600461089b565b61025a565b604051601281526020016100be565b61013161012c366004610901565b61027e565b005b6100da6101413660046108d7565b6102ea565b6100ee610154366004610846565b6001600160a01b031660009081526020819052604090205490565b6100b1610329565b6100da6101853660046108d7565b610338565b6100da6101983660046108d7565b6103ca565b6100ee6101ab366004610868565b6103d8565b6060600380546101bf906109a6565b80601f01602080910402602001604051908101604052809291908181526020018280546101eb906109a6565b80156102385780601f1061020d57610100808354040283529160200191610238565b820191906000526020600020905b81548152906001019060200180831161021b57829003601f168201915b5050505050905090565b600033610250818585610403565b5060019392505050565b600033610268858285610527565b6102738585856105a1565b506001949350505050565b620186a08111156102cc5760405162461bcd60e51b81526020600482015260136024820152724d617820616d6f756e74206f6e652074696d6560681b60448201526064015b60405180910390fd5b6102e7336102e283670de0b6b3a7640000610987565b61075d565b50565b3360008181526001602090815260408083206001600160a01b0387168452909152812054909190610250908290869061032490879061096f565b610403565b6060600480546101bf906109a6565b3360008181526001602090815260408083206001600160a01b0387168452909152812054909190838110156103bd5760405162461bcd60e51b815260206004820152602560248201527f45524332303a2064656372656173656420616c6c6f77616e63652062656c6f77604482015264207a65726f60d81b60648201526084016102c3565b6102738286868403610403565b6000336102508185856105a1565b6001600160a01b03918216600090815260016020908152604080832093909416825291909152205490565b6001600160a01b0383166104655760405162461bcd60e51b8152602060048201526024808201527f45524332303a20617070726f76652066726f6d20746865207a65726f206164646044820152637265737360e01b60648201526084016102c3565b6001600160a01b0382166104c65760405162461bcd60e51b815260206004820152602260248201527f45524332303a20617070726f766520746f20746865207a65726f206164647265604482015261737360f01b60648201526084016102c3565b6001600160a01b0383811660008181526001602090815260408083209487168084529482529182902085905590518481527f8c5be1e5ebec7d5bd14f71427d1e84f3dd0314c0f7b2291e5b200ac8c7c3b925910160405180910390a3505050565b600061053384846103d8565b9050600019811461059b578181101561058e5760405162461bcd60e51b815260206004820152601d60248201527f45524332303a20696e73756666696369656e7420616c6c6f77616e636500000060448201526064016102c3565b61059b8484848403610403565b50505050565b6001600160a01b0383166106055760405162461bcd60e51b815260206004820152602560248201527f45524332303a207472616e736665722066726f6d20746865207a65726f206164604482015264647265737360d81b60648201526084016102c3565b6001600160a01b0382166106675760405162461bcd60e51b815260206004820152602360248201527f45524332303a207472616e7366657220746f20746865207a65726f206164647260448201526265737360e81b60648201526084016102c3565b6001600160a01b038316600090815260208190526040902054818110156106df5760405162461bcd60e51b815260206004820152602660248201527f45524332303a207472616e7366657220616d6f756e7420657863656564732062604482015265616c616e636560d01b60648201526084016102c3565b6001600160a01b0380851660009081526020819052604080822085850390559185168152908120805484929061071690849061096f565b92505081905550826001600160a01b0316846001600160a01b03166000805160206109f88339815191528460405161075091815260200190565b60405180910390a361059b565b6001600160a01b0382166107b35760405162461bcd60e51b815260206004820152601f60248201527f45524332303a206d696e7420746f20746865207a65726f20616464726573730060448201526064016102c3565b80600260008282546107c5919061096f565b90915550506001600160a01b038216600090815260208190526040812080548392906107f290849061096f565b90915550506040518181526001600160a01b038316906000906000805160206109f88339815191529060200160405180910390a35050565b80356001600160a01b038116811461084157600080fd5b919050565b60006020828403121561085857600080fd5b6108618261082a565b9392505050565b6000806040838503121561087b57600080fd5b6108848361082a565b91506108926020840161082a565b90509250929050565b6000806000606084860312156108b057600080fd5b6108b98461082a565b92506108c76020850161082a565b9150604084013590509250925092565b600080604083850312156108ea57600080fd5b6108f38361082a565b946020939093013593505050565b60006020828403121561091357600080fd5b5035919050565b600060208083528351808285015260005b818110156109475785810183015185820160400152820161092b565b81811115610959576000604083870101525b50601f01601f1916929092016040019392505050565b60008219821115610982576109826109e1565b500190565b60008160001904831182151516156109a1576109a16109e1565b500290565b600181811c908216806109ba57607f821691505b602082108114156109db57634e487b7160e01b600052602260045260246000fd5b50919050565b634e487b7160e01b600052601160045260246000fdfeddf252ad1be2c89b69c2b068fc378daa952ba7f163c4a11628f55a4df523b3efa26469706673582212209e80f77614b42325acaa4c9e236d288e0e2feafb1ad2d97e398121f8d466b9ba64736f6c63430008070033",
  "linkReferences": {},
  "deployedLinkReferences": {}
}